{
  "_format": "hh-sol-artifact-1",
  "contractName": "SupplyChain",
  "sourceName": "contracts/SupplyChain.sol",
  "abi": [
    {
      "inputs": [],
      "stateMutability": "nonpayable",
      "type": "constructor"
    },
    {
      "anonymous": false,
      "inputs": [
        {
          "indexed": true,
          "internalType": "uint256",
          "name": "actorId",
          "type": "uint256"
        },
        {
          "indexed": true,
          "internalType": "enum SupplyChain.ROLE",
          "name": "role",
          "type": "uint8"
        },
        {
          "indexed": true,
          "internalType": "address",
          "name": "actor",
          "type": "address"
        },
        {
          "indexed": false,
          "internalType": "string",
          "name": "name",
          "type": "string"
        },
        {
          "indexed": false,
          "internalType": "string",
          "name": "place",
          "type": "string"
        }
      ],
      "name": "ActorAdded",
      "type": "event"
    },
    {
      "anonymous": false,
      "inputs": [
        {
          "indexed": true,
          "internalType": "uint256",
          "name": "productId",
          "type": "uint256"
        },
        {
          "indexed": false,
          "internalType": "string",
          "name": "name",
          "type": "string"
        }
      ],
      "name": "ProductAdded",
      "type": "event"
    },
    {
      "anonymous": false,
      "inputs": [
        {
          "indexed": true,
          "internalType": "uint256",
          "name": "productId",
          "type": "uint256"
        },
        {
          "indexed": true,
          "internalType": "enum SupplyChain.STAGE",
          "name": "stage",
          "type": "uint8"
        }
      ],
      "name": "ProductStageUpdated",
      "type": "event"
    },
    {
      "inputs": [
        {
          "internalType": "uint256",
          "name": "",
          "type": "uint256"
        }
      ],
      "name": "DISTRIBUTORS",
      "outputs": [
        {
          "internalType": "address",
          "name": "addr",
          "type": "address"
        },
        {
          "internalType": "uint256",
          "name": "id",
          "type": "uint256"
        },
        {
          "internalType": "string",
          "name": "name",
          "type": "string"
        },
        {
          "internalType": "string",
          "name": "place",
          "type": "string"
        },
        {
          "internalType": "enum SupplyChain.ROLE",
          "name": "role",
          "type": "uint8"
        }
      ],
      "stateMutability": "view",
      "type": "function"
    },
    {
      "inputs": [
        {
          "internalType": "uint256",
          "name": "",
          "type": "uint256"
        }
      ],
      "name": "PRODUCERS",
      "outputs": [
        {
          "internalType": "address",
          "name": "addr",
          "type": "address"
        },
        {
          "internalType": "uint256",
          "name": "id",
          "type": "uint256"
        },
        {
          "internalType": "string",
          "name": "name",
          "type": "string"
        },
        {
          "internalType": "string",
          "name": "place",
          "type": "string"
        },
        {
          "internalType": "enum SupplyChain.ROLE",
          "name": "role",
          "type": "uint8"
        }
      ],
      "stateMutability": "view",
      "type": "function"
    },
    {
      "inputs": [
        {
          "internalType": "uint256",
          "name": "",
          "type": "uint256"
        }
      ],
      "name": "ProductStock",
      "outputs": [
        {
          "internalType": "uint256",
          "name": "id",
          "type": "uint256"
        },
        {
          "internalType": "string",
          "name": "name",
          "type": "string"
        },
        {
          "internalType": "string",
          "name": "description",
          "type": "string"
        },
        {
          "internalType": "uint256",
          "name": "supplierId",
          "type": "uint256"
        },
        {
          "internalType": "uint256",
          "name": "producerId",
          "type": "uint256"
        },
        {
          "internalType": "uint256",
          "name": "distributorId",
          "type": "uint256"
        },
        {
          "internalType": "uint256",
          "name": "sellerId",
          "type": "uint256"
        },
        {
          "internalType": "enum SupplyChain.STAGE",
          "name": "stage",
          "type": "uint8"
        }
      ],
      "stateMutability": "view",
      "type": "function"
    },
    {
      "inputs": [
        {
          "internalType": "uint256",
          "name": "",
          "type": "uint256"
        }
      ],
      "name": "SELLERS",
      "outputs": [
        {
          "internalType": "address",
          "name": "addr",
          "type": "address"
        },
        {
          "internalType": "uint256",
          "name": "id",
          "type": "uint256"
        },
        {
          "internalType": "string",
          "name": "name",
          "type": "string"
        },
        {
          "internalType": "string",
          "name": "place",
          "type": "string"
        },
        {
          "internalType": "enum SupplyChain.ROLE",
          "name": "role",
          "type": "uint8"
        }
      ],
      "stateMutability": "view",
      "type": "function"
    },
    {
      "inputs": [
        {
          "internalType": "uint256",
          "name": "",
          "type": "uint256"
        }
      ],
      "name": "SUPPLIERS",
      "outputs": [
        {
          "internalType": "address",
          "name": "addr",
          "type": "address"
        },
        {
          "internalType": "uint256",
          "name": "id",
          "type": "uint256"
        },
        {
          "internalType": "string",
          "name": "name",
          "type": "string"
        },
        {
          "internalType": "string",
          "name": "place",
          "type": "string"
        },
        {
          "internalType": "enum SupplyChain.ROLE",
          "name": "role",
          "type": "uint8"
        }
      ],
      "stateMutability": "view",
      "type": "function"
    },
    {
      "inputs": [
        {
          "internalType": "address",
          "name": "_address",
          "type": "address"
        },
        {
          "internalType": "string",
          "name": "_name",
          "type": "string"
        },
        {
          "internalType": "string",
          "name": "_place",
          "type": "string"
        },
        {
          "internalType": "enum SupplyChain.ROLE",
          "name": "_role",
          "type": "uint8"
        }
      ],
      "name": "addActor",
      "outputs": [],
      "stateMutability": "nonpayable",
      "type": "function"
    },
    {
      "inputs": [
        {
          "internalType": "address",
          "name": "_address",
          "type": "address"
        },
        {
          "internalType": "string",
          "name": "_name",
          "type": "string"
        },
        {
          "internalType": "string",
          "name": "_place",
          "type": "string"
        }
      ],
      "name": "addDistributor",
      "outputs": [],
      "stateMutability": "nonpayable",
      "type": "function"
    },
    {
      "inputs": [
        {
          "internalType": "address",
          "name": "_address",
          "type": "address"
        },
        {
          "internalType": "string",
          "name": "_name",
          "type": "string"
        },
        {
          "internalType": "string",
          "name": "_place",
          "type": "string"
        }
      ],
      "name": "addProducer",
      "outputs": [],
      "stateMutability": "nonpayable",
      "type": "function"
    },
    {
      "inputs": [
        {
          "internalType": "string",
          "name": "_name",
          "type": "string"
        },
        {
          "internalType": "string",
          "name": "_description",
          "type": "string"
        }
      ],
      "name": "addProduct",
      "outputs": [],
      "stateMutability": "nonpayable",
      "type": "function"
    },
    {
      "inputs": [
        {
          "internalType": "address",
          "name": "_address",
          "type": "address"
        },
        {
          "internalType": "string",
          "name": "_name",
          "type": "string"
        },
        {
          "internalType": "string",
          "name": "_place",
          "type": "string"
        }
      ],
      "name": "addSeller",
      "outputs": [],
      "stateMutability": "nonpayable",
      "type": "function"
    },
    {
      "inputs": [
        {
          "internalType": "address",
          "name": "_address",
          "type": "address"
        },
        {
          "internalType": "string",
          "name": "_name",
          "type": "string"
        },
        {
          "internalType": "string",
          "name": "_place",
          "type": "string"
        }
      ],
      "name": "addSupplier",
      "outputs": [],
      "stateMutability": "nonpayable",
      "type": "function"
    },
    {
      "inputs": [
        {
          "internalType": "uint256",
          "name": "_productId",
          "type": "uint256"
        }
      ],
      "name": "distributeProduct",
      "outputs": [],
      "stateMutability": "nonpayable",
      "type": "function"
    },
    {
      "inputs": [],
      "name": "distributorCtr",
      "outputs": [
        {
          "internalType": "uint256",
          "name": "",
          "type": "uint256"
        }
      ],
      "stateMutability": "view",
      "type": "function"
    },
    {
      "inputs": [
        {
          "internalType": "uint256",
          "name": "_productId",
          "type": "uint256"
        }
      ],
      "name": "listForSale",
      "outputs": [],
      "stateMutability": "nonpayable",
      "type": "function"
    },
    {
      "inputs": [
        {
          "internalType": "uint256",
          "name": "_productId",
          "type": "uint256"
        }
      ],
      "name": "markProductSold",
      "outputs": [],
      "stateMutability": "nonpayable",
      "type": "function"
    },
    {
      "inputs": [],
      "name": "owner",
      "outputs": [
        {
          "internalType": "address",
          "name": "",
          "type": "address"
        }
      ],
      "stateMutability": "view",
      "type": "function"
    },
    {
      "inputs": [
        {
          "internalType": "uint256",
          "name": "_productId",
          "type": "uint256"
        }
      ],
      "name": "processProduct",
      "outputs": [],
      "stateMutability": "nonpayable",
      "type": "function"
    },
    {
      "inputs": [],
      "name": "producerCtr",
      "outputs": [
        {
          "internalType": "uint256",
          "name": "",
          "type": "uint256"
        }
      ],
      "stateMutability": "view",
      "type": "function"
    },
    {
      "inputs": [],
      "name": "productCtr",
      "outputs": [
        {
          "internalType": "uint256",
          "name": "",
          "type": "uint256"
        }
      ],
      "stateMutability": "view",
      "type": "function"
    },
    {
      "inputs": [],
      "name": "sellerCtr",
      "outputs": [
        {
          "internalType": "uint256",
          "name": "",
          "type": "uint256"
        }
      ],
      "stateMutability": "view",
      "type": "function"
    },
    {
      "inputs": [
        {
          "internalType": "uint256",
          "name": "_productId",
          "type": "uint256"
        }
      ],
      "name": "showStage",
      "outputs": [
        {
          "internalType": "string",
          "name": "",
          "type": "string"
        }
      ],
      "stateMutability": "view",
      "type": "function"
    },
    {
      "inputs": [],
      "name": "supplierCtr",
      "outputs": [
        {
          "internalType": "uint256",
          "name": "",
          "type": "uint256"
        }
      ],
      "stateMutability": "view",
      "type": "function"
    },
    {
      "inputs": [
        {
          "internalType": "uint256",
          "name": "_productId",
          "type": "uint256"
        }
      ],
      "name": "supplyProduct",
      "outputs": [],
      "stateMutability": "nonpayable",
      "type": "function"
    }
  ],
  "bytecode": "0x60806040526000600155600060025560006003556000600455600060055534801561002957600080fd5b50600080546001600160a01b03191633179055611d308061004b6000396000f3fe608060405234801561001057600080fd5b506004361061014d5760003560e01c806393b33b37116100c3578063ca2efb551161007c578063ca2efb55146102cd578063d4eb879b146102e0578063d9a7d910146102e9578063e101a2e0146102fc578063e101f6641461031c578063f07b16261461032f57600080fd5b806393b33b371461026b578063aaea34aa14610282578063b5fabfda1461028b578063c12f12611461029e578063c4ff4cfc146102a7578063c7857fb5146102ba57600080fd5b80635207c7d2116101155780635207c7d2146101cd5780635573d8b2146101e05780635ed0b59e146102075780636611b2be1461021a5780636b36bed11461022d5780638da5cb5b1461024057600080fd5b8063041b3c04146101525780630e4000db146101675780632a4af4401461017a5780633e2294061461018d57806344167b41146101ba575b600080fd5b61016561016036600461173c565b610338565b005b61016561017536600461173c565b61049d565b610165610188366004611814565b61058a565b6101a061019b36600461173c565b6105c6565b6040516101b1959493929190611905565b60405180910390f35b6101a06101c836600461173c565b610712565b6101a06101db36600461173c565b610744565b6101f36101ee36600461173c565b610776565b6040516101b198979695949392919061195a565b6101656102153660046119bf565b6108cb565b610165610228366004611814565b610eb6565b61016561023b36600461173c565b610eed565b600054610253906001600160a01b031681565b6040516001600160a01b0390911681526020016101b1565b61027460035481565b6040519081526020016101b1565b61027460015481565b610165610299366004611814565b610fd5565b61027460055481565b6101a06102b536600461173c565b61100c565b6101656102c836600461173c565b61103e565b6101656102db366004611a4a565b611117565b61027460045481565b6101656102f7366004611814565b611315565b61030f61030a36600461173c565b61134c565b6040516101b19190611aae565b61016561032a36600461173c565b6114e5565b61027460025481565b60008111801561034a57506001548111155b61036f5760405162461bcd60e51b815260040161036690611ac8565b60405180910390fd5b600061037a336115cf565b9050600081116103b95760405162461bcd60e51b815260206004820152600a6024820152692737ba1039b2b63632b960b11b6044820152606401610366565b6000828152600660208190526040909120015481146104095760405162461bcd60e51b815260206004820152600c60248201526b2bb937b7339039b2b63632b960a11b6044820152606401610366565b600360008381526006602052604090206007015460ff166004811115610431576104316118ce565b1461044e5760405162461bcd60e51b815260040161036690611af4565b6000828152600660205260409020600701805460ff191660049081179091555b60405183907fdb1adf3543039f5d54bb67ebf175b8ef7ba88285d54355d6c564b2478877a44290600090a35050565b6000811180156104af57506001548111155b6104cb5760405162461bcd60e51b815260040161036690611ac8565b60006104d633611631565b90506000811161051a5760405162461bcd60e51b815260206004820152600f60248201526e2737ba103234b9ba3934b13aba37b960891b6044820152606401610366565b600260008381526006602052604090206007015460ff166004811115610542576105426118ce565b1461055f5760405162461bcd60e51b815260040161036690611af4565b600082815260066020526040902060058101829055600701805460ff1916600390811790915561046e565b6000546001600160a01b031633146105b45760405162461bcd60e51b815260040161036690611b19565b6105c183838360036108cb565b505050565b600a602052600090815260409020805460018201546002830180546001600160a01b039093169391926105f890611b3d565b80601f016020809104026020016040519081016040528092919081815260200182805461062490611b3d565b80156106715780601f1061064657610100808354040283529160200191610671565b820191906000526020600020905b81548152906001019060200180831161065457829003601f168201915b50505050509080600301805461068690611b3d565b80601f01602080910402602001604051908101604052809291908181526020018280546106b290611b3d565b80156106ff5780601f106106d4576101008083540402835291602001916106ff565b820191906000526020600020905b8154815290600101906020018083116106e257829003601f168201915b5050506004909301549192505060ff1685565b6009602052600090815260409020805460018201546002830180546001600160a01b039093169391926105f890611b3d565b6007602052600090815260409020805460018201546002830180546001600160a01b039093169391926105f890611b3d565b6006602052600090815260409020805460018201805491929161079890611b3d565b80601f01602080910402602001604051908101604052809291908181526020018280546107c490611b3d565b80156108115780601f106107e657610100808354040283529160200191610811565b820191906000526020600020905b8154815290600101906020018083116107f457829003601f168201915b50505050509080600201805461082690611b3d565b80601f016020809104026020016040519081016040528092919081815260200182805461085290611b3d565b801561089f5780601f106108745761010080835404028352916020019161089f565b820191906000526020600020905b81548152906001019060200180831161088257829003601f168201915b505050600384015460048501546005860154600687015460079097015495969295919450925060ff1688565b6000546001600160a01b031633146108f55760405162461bcd60e51b815260040161036690611b19565b6001600160a01b03841661093d5760405162461bcd60e51b815260206004820152600f60248201526e496e76616c6964206164647265737360881b6044820152606401610366565b6000816004811115610951576109516118ce565b0361098d5760405162461bcd60e51b815260206004820152600c60248201526b496e76616c696420726f6c6560a01b6044820152606401610366565b60018160048111156109a1576109a16118ce565b03610ade57600280549060006109b683611b77565b91905055506040518060a00160405280856001600160a01b0316815260200160025481526020018481526020018381526020018260048111156109fb576109fb6118ce565b905260028054600090815260076020908152604091829020845181546001600160a01b0319166001600160a01b03909116178155908401516001820155908301519091820190610a4b9082611bec565b5060608201516003820190610a609082611bec565b5060808201518160040160006101000a81548160ff02191690836004811115610a8b57610a8b6118ce565b0217905550905050836001600160a01b0316816004811115610aaf57610aaf6118ce565b600254600080516020611cdb8339815191528686604051610ad1929190611cac565b60405180910390a4610eb0565b6002816004811115610af257610af26118ce565b03610c215760038054906000610b0783611b77565b91905055506040518060a00160405280856001600160a01b031681526020016003548152602001848152602001838152602001826004811115610b4c57610b4c6118ce565b9052600354600090815260086020908152604091829020835181546001600160a01b0319166001600160a01b03909116178155908301516001820155908201516002820190610b9b9082611bec565b5060608201516003820190610bb09082611bec565b5060808201518160040160006101000a81548160ff02191690836004811115610bdb57610bdb6118ce565b0217905550905050836001600160a01b0316816004811115610bff57610bff6118ce565b600354600080516020611cdb8339815191528686604051610ad1929190611cac565b6003816004811115610c3557610c356118ce565b03610d645760048054906000610c4a83611b77565b91905055506040518060a00160405280856001600160a01b031681526020016004548152602001848152602001838152602001826004811115610c8f57610c8f6118ce565b9052600454600090815260096020908152604091829020835181546001600160a01b0319166001600160a01b03909116178155908301516001820155908201516002820190610cde9082611bec565b5060608201516003820190610cf39082611bec565b5060808201518160040160006101000a81548160ff02191690836004811115610d1e57610d1e6118ce565b0217905550905050836001600160a01b0316816004811115610d4257610d426118ce565b600454600080516020611cdb8339815191528686604051610ad1929190611cac565b6004816004811115610d7857610d786118ce565b03610eb05760058054906000610d8d83611b77565b91905055506040518060a00160405280856001600160a01b031681526020016005548152602001848152602001838152602001826004811115610dd257610dd26118ce565b90526005546000908152600a6020908152604091829020835181546001600160a01b0319166001600160a01b03909116178155908301516001820155908201516002820190610e219082611bec565b5060608201516003820190610e369082611bec565b5060808201518160040160006101000a81548160ff02191690836004811115610e6157610e616118ce565b0217905550905050836001600160a01b0316816004811115610e8557610e856118ce565b600554600080516020611cdb8339815191528686604051610ea7929190611cac565b60405180910390a45b50505050565b6000546001600160a01b03163314610ee05760405162461bcd60e51b815260040161036690611b19565b6105c183838360046108cb565b600081118015610eff57506001548111155b610f1b5760405162461bcd60e51b815260040161036690611ac8565b6000610f263361168a565b905060008111610f675760405162461bcd60e51b815260206004820152600c60248201526b2737ba1039bab8383634b2b960a11b6044820152606401610366565b60008281526006602052604081206007015460ff166004811115610f8d57610f8d6118ce565b14610faa5760405162461bcd60e51b815260040161036690611af4565b600082815260066020526040902060038101829055600701805460ff1916600190811790915561046e565b6000546001600160a01b03163314610fff5760405162461bcd60e51b815260040161036690611b19565b6105c183838360016108cb565b6008602052600090815260409020805460018201546002830180546001600160a01b039093169391926105f890611b3d565b60008111801561105057506001548111155b61106c5760405162461bcd60e51b815260040161036690611ac8565b6000611077336115cf565b9050600081116110b65760405162461bcd60e51b815260206004820152600a6024820152692737ba1039b2b63632b960b11b6044820152606401610366565b600360008381526006602052604090206007015460ff1660048111156110de576110de6118ce565b146110fb5760405162461bcd60e51b815260040161036690611af4565b600082815260066020819052604090912001819055600361046e565b600060025411801561112b57506000600354115b801561113957506000600454115b801561114757506000600554115b6111885760405162461bcd60e51b8152602060048201526012602482015271105b1b081c9bdb195cc81c995c5d5a5c995960721b6044820152606401610366565b6000611193336116e3565b9050600081116111d45760405162461bcd60e51b815260206004820152600c60248201526b2737ba10383937b23ab1b2b960a11b6044820152606401610366565b600180549060006111e483611b77565b919050555060405180610100016040528060015481526020018481526020018381526020016000815260200160008152602001600081526020016000815260200160006004811115611238576112386118ce565b9052600180546000908152600660209081526040909120835181559083015190918201906112669082611bec565b506040820151600282019061127b9082611bec565b50606082015181600301556080820151816004015560a0820151816005015560c0820151816006015560e08201518160070160006101000a81548160ff021916908360048111156112ce576112ce6118ce565b02179055509050506001547f259101de1f87b04b9ee0332ce5e3cc508014004bf283424aead6cd8692f5cf98846040516113089190611aae565b60405180910390a2505050565b6000546001600160a01b0316331461133f5760405162461bcd60e51b815260040161036690611b19565b6105c183838360026108cb565b606060006001541161138e5760405162461bcd60e51b815260206004820152600b60248201526a4e6f2070726f647563747360a81b6044820152606401610366565b60008281526006602052604081206007015460ff16908160048111156113b6576113b66118ce565b036113e857505060408051808201909152600f81526e141c9bd91d58dd0810dc99585d1959608a1b6020820152919050565b60018160048111156113fc576113fc6118ce565b0361142f57505060408051808201909152601081526f50726f63657373696e6720537461676560801b6020820152919050565b6002816004811115611443576114436118ce565b0361147657505060408051808201909152601081526f496e205472616e73697420537461676560801b6020820152919050565b600381600481111561148a5761148a6118ce565b036114bb57505060408051808201909152600e81526d466f722053616c6520537461676560901b6020820152919050565b505060408051808201909152600c81526b141c9bd91d58dd0814dbdb1960a21b6020820152919050565b6000811180156114f757506001548111155b6115135760405162461bcd60e51b815260040161036690611ac8565b600061151e336116e3565b90506000811161155f5760405162461bcd60e51b815260206004820152600c60248201526b2737ba10383937b23ab1b2b960a11b6044820152606401610366565b600160008381526006602052604090206007015460ff166004811115611587576115876118ce565b146115a45760405162461bcd60e51b815260040161036690611af4565b600082815260066020526040902060048101829055600701805460ff1916600290811790915561046e565b600060015b6005548111611628576000818152600a60205260409020546001600160a01b03808516911603611616576000908152600a602052604090206001015492915050565b8061162081611b77565b9150506115d4565b50600092915050565b600060015b6004548111611628576000818152600960205260409020546001600160a01b038085169116036116785760009081526009602052604090206001015492915050565b8061168281611b77565b915050611636565b600060015b6002548111611628576000818152600760205260409020546001600160a01b038085169116036116d15760009081526007602052604090206001015492915050565b806116db81611b77565b91505061168f565b600060015b6003548111611628576000818152600860205260409020546001600160a01b0380851691160361172a5760009081526008602052604090206001015492915050565b8061173481611b77565b9150506116e8565b60006020828403121561174e57600080fd5b5035919050565b80356001600160a01b038116811461176c57600080fd5b919050565b634e487b7160e01b600052604160045260246000fd5b600082601f83011261179857600080fd5b813567ffffffffffffffff808211156117b3576117b3611771565b604051601f8301601f19908116603f011681019082821181831017156117db576117db611771565b816040528381528660208588010111156117f457600080fd5b836020870160208301376000602085830101528094505050505092915050565b60008060006060848603121561182957600080fd5b61183284611755565b9250602084013567ffffffffffffffff8082111561184f57600080fd5b61185b87838801611787565b9350604086013591508082111561187157600080fd5b5061187e86828701611787565b9150509250925092565b6000815180845260005b818110156118ae57602081850181015186830182015201611892565b506000602082860101526020601f19601f83011685010191505092915050565b634e487b7160e01b600052602160045260246000fd5b6005811061190257634e487b7160e01b600052602160045260246000fd5b50565b60018060a01b038616815284602082015260a06040820152600061192c60a0830186611888565b828103606084015261193e8186611888565b91505061194a836118e4565b8260808301529695505050505050565b60006101008a83528060208401526119748184018b611888565b90508281036040840152611988818a611888565b9150508660608301528560808301528460a08301528360c08301526119ac836118e4565b8260e08301529998505050505050505050565b600080600080608085870312156119d557600080fd5b6119de85611755565b9350602085013567ffffffffffffffff808211156119fb57600080fd5b611a0788838901611787565b94506040870135915080821115611a1d57600080fd5b50611a2a87828801611787565b925050606085013560058110611a3f57600080fd5b939692955090935050565b60008060408385031215611a5d57600080fd5b823567ffffffffffffffff80821115611a7557600080fd5b611a8186838701611787565b93506020850135915080821115611a9757600080fd5b50611aa485828601611787565b9150509250929050565b602081526000611ac16020830184611888565b9392505050565b602080825260129082015271125b9d985b1a59081c1c9bd91d58dd081a5960721b604082015260600190565b6020808252600b908201526a57726f6e6720737461676560a81b604082015260600190565b6020808252600a908201526927b7363c9037bbb732b960b11b604082015260600190565b600181811c90821680611b5157607f821691505b602082108103611b7157634e487b7160e01b600052602260045260246000fd5b50919050565b600060018201611b9757634e487b7160e01b600052601160045260246000fd5b5060010190565b601f8211156105c157600081815260208120601f850160051c81016020861015611bc55750805b601f850160051c820191505b81811015611be457828155600101611bd1565b505050505050565b815167ffffffffffffffff811115611c0657611c06611771565b611c1a81611c148454611b3d565b84611b9e565b602080601f831160018114611c4f5760008415611c375750858301515b600019600386901b1c1916600185901b178555611be4565b600085815260208120601f198616915b82811015611c7e57888601518255948401946001909101908401611c5f565b5085821015611c9c5787850151600019600388901b60f8161c191681555b5050505050600190811b01905550565b604081526000611cbf6040830185611888565b8281036020840152611cd18185611888565b9594505050505056fe13994b79f47c3afa83a0230d19b687dffe097a50194c30bf566c9b9cd354ce9ea2646970667358221220abfadf4134b9ba7bfa10a8f7c78ad338d790e7972f9a97f43a1ee5d341a27f8b64736f6c63430008130033",
  "linkReferences": {},
  "deployedLinkReferences": {}
}